{
  "address": "0x2677Bc6Cf29DbE811A9F65D5F92128511cFF7973",
  "abi": [
    {
      "inputs": [
        {
          "internalType": "address",
          "name": "_owner",
          "type": "address"
        },
        {
          "internalType": "address",
          "name": "_rewardsToken",
          "type": "address"
        },
        {
          "internalType": "address",
          "name": "_stakingToken",
          "type": "address"
        }
      ],
      "stateMutability": "nonpayable",
      "type": "constructor"
    },
    {
      "anonymous": false,
      "inputs": [
        {
          "indexed": false,
          "internalType": "address",
          "name": "oldOwner",
          "type": "address"
        },
        {
          "indexed": false,
          "internalType": "address",
          "name": "newOwner",
          "type": "address"
        }
      ],
      "name": "OwnerChanged",
      "type": "event"
    },
    {
      "anonymous": false,
      "inputs": [
        {
          "indexed": false,
          "internalType": "address",
          "name": "newOwner",
          "type": "address"
        }
      ],
      "name": "OwnerNominated",
      "type": "event"
    },
    {
      "anonymous": false,
      "inputs": [
        {
          "indexed": false,
          "internalType": "bool",
          "name": "isPaused",
          "type": "bool"
        }
      ],
      "name": "PauseChanged",
      "type": "event"
    },
    {
      "anonymous": false,
      "inputs": [
        {
          "indexed": false,
          "internalType": "uint256",
          "name": "periodFinish",
          "type": "uint256"
        }
      ],
      "name": "PeriodFinishUpdated",
      "type": "event"
    },
    {
      "anonymous": false,
      "inputs": [
        {
          "indexed": false,
          "internalType": "address",
          "name": "token",
          "type": "address"
        },
        {
          "indexed": false,
          "internalType": "uint256",
          "name": "amount",
          "type": "uint256"
        }
      ],
      "name": "Recovered",
      "type": "event"
    },
    {
      "anonymous": false,
      "inputs": [
        {
          "indexed": false,
          "internalType": "uint256",
          "name": "reward",
          "type": "uint256"
        }
      ],
      "name": "RewardAdded",
      "type": "event"
    },
    {
      "anonymous": false,
      "inputs": [
        {
          "indexed": true,
          "internalType": "address",
          "name": "user",
          "type": "address"
        },
        {
          "indexed": false,
          "internalType": "uint256",
          "name": "reward",
          "type": "uint256"
        }
      ],
      "name": "RewardPaid",
      "type": "event"
    },
    {
      "anonymous": false,
      "inputs": [
        {
          "indexed": false,
          "internalType": "uint256",
          "name": "rate",
          "type": "uint256"
        }
      ],
      "name": "RewardRateUpdated",
      "type": "event"
    },
    {
      "anonymous": false,
      "inputs": [
        {
          "indexed": false,
          "internalType": "address",
          "name": "token",
          "type": "address"
        }
      ],
      "name": "RewardTokenUpdated",
      "type": "event"
    },
    {
      "anonymous": false,
      "inputs": [
        {
          "indexed": false,
          "internalType": "uint256",
          "name": "newDuration",
          "type": "uint256"
        }
      ],
      "name": "RewardsDurationUpdated",
      "type": "event"
    },
    {
      "anonymous": false,
      "inputs": [
        {
          "indexed": true,
          "internalType": "address",
          "name": "user",
          "type": "address"
        },
        {
          "indexed": false,
          "internalType": "uint256",
          "name": "amount",
          "type": "uint256"
        }
      ],
      "name": "Staked",
      "type": "event"
    },
    {
      "anonymous": false,
      "inputs": [
        {
          "indexed": true,
          "internalType": "address",
          "name": "user",
          "type": "address"
        },
        {
          "indexed": false,
          "internalType": "uint256",
          "name": "amount",
          "type": "uint256"
        }
      ],
      "name": "Withdrawn",
      "type": "event"
    },
    {
      "inputs": [],
      "name": "acceptOwnership",
      "outputs": [],
      "stateMutability": "nonpayable",
      "type": "function"
    },
    {
      "inputs": [
        {
          "internalType": "address",
          "name": "account",
          "type": "address"
        }
      ],
      "name": "balanceOf",
      "outputs": [
        {
          "internalType": "uint256",
          "name": "",
          "type": "uint256"
        }
      ],
      "stateMutability": "view",
      "type": "function"
    },
    {
      "inputs": [
        {
          "internalType": "address",
          "name": "account",
          "type": "address"
        }
      ],
      "name": "earned",
      "outputs": [
        {
          "internalType": "uint256",
          "name": "",
          "type": "uint256"
        }
      ],
      "stateMutability": "view",
      "type": "function"
    },
    {
      "inputs": [],
      "name": "exit",
      "outputs": [],
      "stateMutability": "nonpayable",
      "type": "function"
    },
    {
      "inputs": [],
      "name": "getReward",
      "outputs": [],
      "stateMutability": "nonpayable",
      "type": "function"
    },
    {
      "inputs": [],
      "name": "getRewardForDuration",
      "outputs": [
        {
          "internalType": "uint256",
          "name": "",
          "type": "uint256"
        }
      ],
      "stateMutability": "view",
      "type": "function"
    },
    {
      "inputs": [],
      "name": "lastPauseTime",
      "outputs": [
        {
          "internalType": "uint256",
          "name": "",
          "type": "uint256"
        }
      ],
      "stateMutability": "view",
      "type": "function"
    },
    {
      "inputs": [],
      "name": "lastTimeRewardApplicable",
      "outputs": [
        {
          "internalType": "uint256",
          "name": "",
          "type": "uint256"
        }
      ],
      "stateMutability": "view",
      "type": "function"
    },
    {
      "inputs": [],
      "name": "lastUpdateTime",
      "outputs": [
        {
          "internalType": "uint256",
          "name": "",
          "type": "uint256"
        }
      ],
      "stateMutability": "view",
      "type": "function"
    },
    {
      "inputs": [
        {
          "internalType": "address",
          "name": "_owner",
          "type": "address"
        }
      ],
      "name": "nominateNewOwner",
      "outputs": [],
      "stateMutability": "nonpayable",
      "type": "function"
    },
    {
      "inputs": [],
      "name": "nominatedOwner",
      "outputs": [
        {
          "internalType": "address",
          "name": "",
          "type": "address"
        }
      ],
      "stateMutability": "view",
      "type": "function"
    },
    {
      "inputs": [
        {
          "internalType": "uint256",
          "name": "reward",
          "type": "uint256"
        }
      ],
      "name": "notifyRewardAmount",
      "outputs": [],
      "stateMutability": "nonpayable",
      "type": "function"
    },
    {
      "inputs": [],
      "name": "owner",
      "outputs": [
        {
          "internalType": "address",
          "name": "",
          "type": "address"
        }
      ],
      "stateMutability": "view",
      "type": "function"
    },
    {
      "inputs": [],
      "name": "paused",
      "outputs": [
        {
          "internalType": "bool",
          "name": "",
          "type": "bool"
        }
      ],
      "stateMutability": "view",
      "type": "function"
    },
    {
      "inputs": [],
      "name": "periodFinish",
      "outputs": [
        {
          "internalType": "uint256",
          "name": "",
          "type": "uint256"
        }
      ],
      "stateMutability": "view",
      "type": "function"
    },
    {
      "inputs": [
        {
          "internalType": "address",
          "name": "tokenAddress",
          "type": "address"
        },
        {
          "internalType": "uint256",
          "name": "tokenAmount",
          "type": "uint256"
        }
      ],
      "name": "recoverERC20",
      "outputs": [],
      "stateMutability": "nonpayable",
      "type": "function"
    },
    {
      "inputs": [],
      "name": "rewardPerToken",
      "outputs": [
        {
          "internalType": "uint256",
          "name": "",
          "type": "uint256"
        }
      ],
      "stateMutability": "view",
      "type": "function"
    },
    {
      "inputs": [],
      "name": "rewardPerTokenStored",
      "outputs": [
        {
          "internalType": "uint256",
          "name": "",
          "type": "uint256"
        }
      ],
      "stateMutability": "view",
      "type": "function"
    },
    {
      "inputs": [],
      "name": "rewardRate",
      "outputs": [
        {
          "internalType": "uint256",
          "name": "",
          "type": "uint256"
        }
      ],
      "stateMutability": "view",
      "type": "function"
    },
    {
      "inputs": [
        {
          "internalType": "address",
          "name": "",
          "type": "address"
        }
      ],
      "name": "rewards",
      "outputs": [
        {
          "internalType": "uint256",
          "name": "",
          "type": "uint256"
        }
      ],
      "stateMutability": "view",
      "type": "function"
    },
    {
      "inputs": [],
      "name": "rewardsDistribution",
      "outputs": [
        {
          "internalType": "address",
          "name": "",
          "type": "address"
        }
      ],
      "stateMutability": "view",
      "type": "function"
    },
    {
      "inputs": [],
      "name": "rewardsDuration",
      "outputs": [
        {
          "internalType": "uint256",
          "name": "",
          "type": "uint256"
        }
      ],
      "stateMutability": "view",
      "type": "function"
    },
    {
      "inputs": [],
      "name": "rewardsToken",
      "outputs": [
        {
          "internalType": "address",
          "name": "",
          "type": "address"
        }
      ],
      "stateMutability": "view",
      "type": "function"
    },
    {
      "inputs": [
        {
          "internalType": "bool",
          "name": "_paused",
          "type": "bool"
        }
      ],
      "name": "setPaused",
      "outputs": [],
      "stateMutability": "nonpayable",
      "type": "function"
    },
    {
      "inputs": [
        {
          "internalType": "uint256",
          "name": "_periodFinish",
          "type": "uint256"
        }
      ],
      "name": "setPeriodFinish",
      "outputs": [],
      "stateMutability": "nonpayable",
      "type": "function"
    },
    {
      "inputs": [
        {
          "internalType": "uint256",
          "name": "_rate",
          "type": "uint256"
        }
      ],
      "name": "setRewardRate",
      "outputs": [],
      "stateMutability": "nonpayable",
      "type": "function"
    },
    {
      "inputs": [
        {
          "internalType": "address",
          "name": "_tokenAddress",
          "type": "address"
        }
      ],
      "name": "setRewardToken",
      "outputs": [],
      "stateMutability": "nonpayable",
      "type": "function"
    },
    {
      "inputs": [
        {
          "internalType": "address",
          "name": "_rewardsDistribution",
          "type": "address"
        }
      ],
      "name": "setRewardsDistribution",
      "outputs": [],
      "stateMutability": "nonpayable",
      "type": "function"
    },
    {
      "inputs": [
        {
          "internalType": "uint256",
          "name": "_rewardsDuration",
          "type": "uint256"
        }
      ],
      "name": "setRewardsDuration",
      "outputs": [],
      "stateMutability": "nonpayable",
      "type": "function"
    },
    {
      "inputs": [
        {
          "internalType": "uint256",
          "name": "amount",
          "type": "uint256"
        }
      ],
      "name": "stake",
      "outputs": [],
      "stateMutability": "nonpayable",
      "type": "function"
    },
    {
      "inputs": [],
      "name": "stakingToken",
      "outputs": [
        {
          "internalType": "contract IERC20",
          "name": "",
          "type": "address"
        }
      ],
      "stateMutability": "view",
      "type": "function"
    },
    {
      "inputs": [],
      "name": "totalSupply",
      "outputs": [
        {
          "internalType": "uint256",
          "name": "",
          "type": "uint256"
        }
      ],
      "stateMutability": "view",
      "type": "function"
    },
    {
      "inputs": [
        {
          "internalType": "address",
          "name": "",
          "type": "address"
        }
      ],
      "name": "userRewardPerTokenPaid",
      "outputs": [
        {
          "internalType": "uint256",
          "name": "",
          "type": "uint256"
        }
      ],
      "stateMutability": "view",
      "type": "function"
    },
    {
      "inputs": [
        {
          "internalType": "uint256",
          "name": "amount",
          "type": "uint256"
        }
      ],
      "name": "withdraw",
      "outputs": [],
      "stateMutability": "nonpayable",
      "type": "function"
    }
  ],
  "transactionHash": "0x1077593d605d29faeeb7f96a2b25dab6583400243d3b29bbed738080e490fe21",
  "args": [
    "0x8DD94D36932Ae66A96c01Be4d8F76B3734f590a9",
    "0x93e46118165e6b32b83e5c8931b1291a7d1c53f2",
    "0x93e46118165e6b32b83e5c8931b1291a7d1c53f2"
  ],
  "solcInputHash": "6c24e897e8519fa3698761ca49da1fd9",
  "bytecode": "0x6080604052600a600855610e106009553480156200001c57600080fd5b5060405162001b2338038062001b238339810160408190526200003f91620001c0565b826001600160a01b0381166200009c5760405162461bcd60e51b815260206004820152601960248201527f4f776e657220616464726573732063616e6e6f7420626520300000000000000060448201526064015b60405180910390fd5b600080546001600160a01b0319166001600160a01b03831690811782556040805192835260208301919091527fb532073b38c83145e3e5135377a08bf9aab55bc0fd7c1179cd4fb995d2a5159c910160405180910390a15060016003556000546001600160a01b0316620001475760405162461bcd60e51b815260206004820152601160248201527013dddb995c881b5d5cdd081899481cd95d607a1b604482015260640162000093565b60058054610100600160a81b0319166101006001600160a01b038581169190910291909117909155600680546001600160a01b031916918316919091179055620001964263059fa60062000209565b600755506200022e915050565b80516001600160a01b0381168114620001bb57600080fd5b919050565b600080600060608486031215620001d5578283fd5b620001e084620001a3565b9250620001f060208501620001a3565b91506200020060408501620001a3565b90509250925092565b600082198211156200022957634e487b7160e01b81526011600452602481fd5b500190565b6118e5806200023e6000396000f3fe608060405234801561001057600080fd5b50600436106102255760003560e01c80637b0a47ee1161012a578063a694fc3a116100bd578063d1af0c7d1161008c578063df4e4e5811610071578063df4e4e581461046f578063e9fad8ee14610482578063ebe2b12b1461048a57600080fd5b8063d1af0c7d1461044e578063df136d651461046657600080fd5b8063a694fc3a14610417578063c8f33c911461042a578063cc1a378f14610433578063cd3daf9d1461044657600080fd5b80638b876347116100f95780638b876347146103c85780638da5cb5b146103e857806391b4ded9146103fb5780639e447fc61461040457600080fd5b80637b0a47ee1461039157806380faa57d1461039a5780638980f11f146103a25780638aee8127146103b557600080fd5b8063386a9525116101bd57806353a47bb71161018c57806370a082311161017157806370a082311461034d57806372f702f31461037657806379ba50971461038957600080fd5b806353a47bb71461031d5780635c975abb1461033057600080fd5b8063386a9525146102ce5780633c6b16ab146102d75780633d18b912146102ea5780633fc6df6e146102f257600080fd5b806318160ddd116101f957806318160ddd1461029857806319762143146102a05780631c1f78eb146102b35780632e1a7d4d146102bb57600080fd5b80628cc2621461022a5780630700037d146102505780631627540c1461027057806316c38b3c14610285575b600080fd5b61023d610238366004611720565b610493565b6040519081526020015b60405180910390f35b61023d61025e366004611720565b600d6020526000908152604090205481565b61028361027e366004611720565b610511565b005b610283610293366004611763565b61057b565b600e5461023d565b6102836102ae366004611720565b6105f1565b61023d610628565b6102836102c936600461179b565b610646565b61023d60095481565b6102836102e536600461179b565b6107e3565b610283610a71565b600254610305906001600160a01b031681565b6040516001600160a01b039091168152602001610247565b600154610305906001600160a01b031681565b60055461033d9060ff1681565b6040519015158152602001610247565b61023d61035b366004611720565b6001600160a01b03166000908152600f602052604090205490565b600654610305906001600160a01b031681565b610283610ba2565b61023d60085481565b61023d610ca1565b6102836103b036600461173a565b610cb8565b6102836103c3366004611720565b610da4565b61023d6103d6366004611720565b600c6020526000908152604090205481565b600054610305906001600160a01b031681565b61023d60045481565b61028361041236600461179b565b610e95565b61028361042536600461179b565b610ed2565b61023d600a5481565b61028361044136600461179b565b6110d7565b61023d6111b1565b6005546103059061010090046001600160a01b031681565b61023d600b5481565b61028361047d36600461179b565b6111fd565b6102836112b1565b61023d60075481565b6001600160a01b0381166000908152600d6020908152604080832054600c90925282205461050b919061050590670de0b6b3a7640000906104ff906104e0906104da6111b1565b906112d4565b6001600160a01b0388166000908152600f6020526040902054906112e7565b906112f3565b906112ff565b92915050565b61051961130b565b6001805473ffffffffffffffffffffffffffffffffffffffff19166001600160a01b0383169081179091556040519081527f906a1c6bd7e3091ea86693dd029a831c19049ce77f1dce2ce0bab1cacbabce22906020015b60405180910390a150565b61058361130b565b60055460ff16151581151514156105975750565b6005805460ff191682151590811790915560ff16156105b557426004555b60055460405160ff909116151581527f8fb6c181ee25a520cf3dd6565006ef91229fcfe5a989566c2a3b8c115570cec590602001610570565b50565b6105f961130b565b6002805473ffffffffffffffffffffffffffffffffffffffff19166001600160a01b0392909216919091179055565b60006106416009546008546112e790919063ffffffff16565b905090565b6002600354141561069e5760405162461bcd60e51b815260206004820152601f60248201527f5265656e7472616e637947756172643a207265656e7472616e742063616c6c0060448201526064015b60405180910390fd5b6002600355336106ac6111b1565b600b556106b7610ca1565b600a556001600160a01b038116156106fe576106d281610493565b6001600160a01b0382166000908152600d6020908152604080832093909355600b54600c909152919020555b6000821161074e5760405162461bcd60e51b815260206004820152601160248201527f43616e6e6f7420776974686472617720300000000000000000000000000000006044820152606401610695565b600e5461075b90836112d4565b600e55336000908152600f602052604090205461077890836112d4565b336000818152600f60205260409020919091556006546107a4916001600160a01b03909116908461138b565b60405182815233907f7084f5476618d8e60b11ef0d7d3f06914655adb8793e28ff7f018d4c76d505d5906020015b60405180910390a250506001600355565b6002546001600160a01b031633146108635760405162461bcd60e51b815260206004820152602a60248201527f43616c6c6572206973206e6f742052657761726473446973747269627574696f60448201527f6e20636f6e7472616374000000000000000000000000000000000000000000006064820152608401610695565b600061086d6111b1565b600b55610878610ca1565b600a556001600160a01b038116156108bf5761089381610493565b6001600160a01b0382166000908152600d6020908152604080832093909355600b54600c909152919020555b60075442106108de576009546108d69083906112f3565b600855610921565b6007546000906108ee90426112d4565b90506000610907600854836112e790919063ffffffff16565b60095490915061091b906104ff86846112ff565b60085550505b6005546040517f70a0823100000000000000000000000000000000000000000000000000000000815230600482015260009161010090046001600160a01b0316906370a082319060240160206040518083038186803b15801561098357600080fd5b505afa158015610997573d6000803e3d6000fd5b505050506040513d601f19601f820116820180604052508101906109bb91906117b3565b90506109d2600954826112f390919063ffffffff16565b6008541115610a235760405162461bcd60e51b815260206004820152601860248201527f50726f76696465642072657761726420746f6f206869676800000000000000006044820152606401610695565b42600a819055600954610a3691906112ff565b6007556040518381527fde88a922e0d3b88b24e9623efeb464919c6bf9f66857a65e2bfcf2ce87a9433d9060200160405180910390a1505050565b60026003541415610ac45760405162461bcd60e51b815260206004820152601f60248201527f5265656e7472616e637947756172643a207265656e7472616e742063616c6c006044820152606401610695565b600260035533610ad26111b1565b600b55610add610ca1565b600a556001600160a01b03811615610b2457610af881610493565b6001600160a01b0382166000908152600d6020908152604080832093909355600b54600c909152919020555b336000908152600d60205260409020548015610b9957336000818152600d6020526040812055600554610b67916101009091046001600160a01b0316908361138b565b60405181815233907fe2403640ba68fed3a2f88b7557551d1993f84b99bb10ff833f0cf8db0c5e0486906020016107d2565b50506001600355565b6001546001600160a01b03163314610c225760405162461bcd60e51b815260206004820152603560248201527f596f75206d757374206265206e6f6d696e61746564206265666f726520796f7560448201527f2063616e20616363657074206f776e65727368697000000000000000000000006064820152608401610695565b600054600154604080516001600160a01b0393841681529290911660208301527fb532073b38c83145e3e5135377a08bf9aab55bc0fd7c1179cd4fb995d2a5159c910160405180910390a1600180546000805473ffffffffffffffffffffffffffffffffffffffff199081166001600160a01b03841617909155169055565b60006007544210610cb3575060075490565b504290565b610cc061130b565b6006546001600160a01b0383811691161415610d445760405162461bcd60e51b815260206004820152602160248201527f43616e6e6f7420776974686472617720746865207374616b696e6720746f6b6560448201527f6e000000000000000000000000000000000000000000000000000000000000006064820152608401610695565b600054610d5e906001600160a01b0384811691168361138b565b604080516001600160a01b0384168152602081018390527f8c1256b8896378cd5044f80c202f9772b9d77dc85c8a6eb51967210b09bfaa28910160405180910390a15050565b610dac61130b565b6001600160a01b038116610e285760405162461bcd60e51b815260206004820152602860248201527f43616e6e6f7420736574207468652072657761726420746f6b656e20746f203060448201527f20616464726573730000000000000000000000000000000000000000000000006064820152608401610695565b600580547fffffffffffffffffffffff0000000000000000000000000000000000000000ff166101006001600160a01b038416908102919091179091556040519081527fa5289ba11778999f4dfb9415023783188d42bbb5db0612cbfbe55999069612a090602001610570565b610e9d61130b565b60088190556040518181527f41d466ebd06fb97e7786086ac8b69b7eb7da798592036251291d34e9791cde0190602001610570565b60026003541415610f255760405162461bcd60e51b815260206004820152601f60248201527f5265656e7472616e637947756172643a207265656e7472616e742063616c6c006044820152606401610695565b600260035560055460ff1615610fa35760405162461bcd60e51b815260206004820152603c60248201527f5468697320616374696f6e2063616e6e6f7420626520706572666f726d65642060448201527f7768696c652074686520636f6e747261637420697320706175736564000000006064820152608401610695565b33610fac6111b1565b600b55610fb7610ca1565b600a556001600160a01b03811615610ffe57610fd281610493565b6001600160a01b0382166000908152600d6020908152604080832093909355600b54600c909152919020555b6000821161104e5760405162461bcd60e51b815260206004820152600e60248201527f43616e6e6f74207374616b6520300000000000000000000000000000000000006044820152606401610695565b600e5461105b90836112ff565b600e55336000908152600f602052604090205461107890836112ff565b336000818152600f60205260409020919091556006546110a5916001600160a01b03909116903085611439565b60405182815233907f9e71bc8eea02a63969f509818f2dafb9254532904319f9dbda79b67bd34a5f3d906020016107d2565b6110df61130b565b600754421161117c5760405162461bcd60e51b815260206004820152605860248201527f50726576696f7573207265776172647320706572696f64206d7573742062652060448201527f636f6d706c657465206265666f7265206368616e67696e67207468652064757260648201527f6174696f6e20666f7220746865206e657720706572696f640000000000000000608482015260a401610695565b60098190556040518181527ffb46ca5a5e06d4540d6387b930a7c978bce0db5f449ec6b3f5d07c6e1d44f2d390602001610570565b6000600e54600014156111c55750600b5490565b6106416111f4600e546104ff670de0b6b3a76400006111ee6008546111ee600a546104da610ca1565b906112e7565b600b54906112ff565b61120561130b565b806007541061127c5760405162461bcd60e51b815260206004820152603960248201527f4e657720706572696f642066696e697368206d7573742062652061667465722060448201527f7468652063757272656e7420706572696f642066696e697368000000000000006064820152608401610695565b60078190556040518181527fe88a1ce556dc43c60c2b7c4e7fd5ea94b587fc60d611d3be4b5bf41f5cd06f8f90602001610570565b336000908152600f60205260409020546112ca90610646565b6112d2610a71565b565b60006112e08284611871565b9392505050565b60006112e08284611852565b60006112e08284611832565b60006112e0828461181a565b6000546001600160a01b031633146112d25760405162461bcd60e51b815260206004820152602f60248201527f4f6e6c792074686520636f6e7472616374206f776e6572206d6179207065726660448201527f6f726d207468697320616374696f6e00000000000000000000000000000000006064820152608401610695565b6040516001600160a01b0383166024820152604481018290526114349084907fa9059cbb00000000000000000000000000000000000000000000000000000000906064015b60408051601f198184030181529190526020810180517bffffffffffffffffffffffffffffffffffffffffffffffffffffffff167fffffffff0000000000000000000000000000000000000000000000000000000090931692909217909152611490565b505050565b6040516001600160a01b038085166024830152831660448201526064810182905261148a9085907f23b872dd00000000000000000000000000000000000000000000000000000000906084016113d0565b50505050565b60006114e5826040518060400160405280602081526020017f5361666545524332303a206c6f772d6c6576656c2063616c6c206661696c6564815250856001600160a01b03166115759092919063ffffffff16565b8051909150156114345780806020019051810190611503919061177f565b6114345760405162461bcd60e51b815260206004820152602a60248201527f5361666545524332303a204552433230206f7065726174696f6e20646964206e60448201527f6f742073756363656564000000000000000000000000000000000000000000006064820152608401610695565b6060611584848460008561158c565b949350505050565b6060824710156116045760405162461bcd60e51b815260206004820152602660248201527f416464726573733a20696e73756666696369656e742062616c616e636520666f60448201527f722063616c6c00000000000000000000000000000000000000000000000000006064820152608401610695565b843b6116525760405162461bcd60e51b815260206004820152601d60248201527f416464726573733a2063616c6c20746f206e6f6e2d636f6e74726163740000006044820152606401610695565b600080866001600160a01b0316858760405161166e91906117cb565b60006040518083038185875af1925050503d80600081146116ab576040519150601f19603f3d011682016040523d82523d6000602084013e6116b0565b606091505b50915091506116c08282866116cb565b979650505050505050565b606083156116da5750816112e0565b8251156116ea5782518084602001fd5b8160405162461bcd60e51b815260040161069591906117e7565b80356001600160a01b038116811461171b57600080fd5b919050565b600060208284031215611731578081fd5b6112e082611704565b6000806040838503121561174c578081fd5b61175583611704565b946020939093013593505050565b600060208284031215611774578081fd5b81356112e0816118ca565b600060208284031215611790578081fd5b81516112e0816118ca565b6000602082840312156117ac578081fd5b5035919050565b6000602082840312156117c4578081fd5b5051919050565b600082516117dd818460208701611888565b9190910192915050565b6020815260008251806020840152611806816040850160208701611888565b601f01601f19169190910160400192915050565b6000821982111561182d5761182d6118b4565b500190565b60008261184d57634e487b7160e01b81526012600452602481fd5b500490565b600081600019048311821515161561186c5761186c6118b4565b500290565b600082821015611883576118836118b4565b500390565b60005b838110156118a357818101518382015260200161188b565b8381111561148a5750506000910152565b634e487b7160e01b600052601160045260246000fd5b80151581146105ee57600080fdfea164736f6c6343000804000a",
  "devdoc": {
    "kind": "dev",
    "methods": {
      "setPaused(bool)": {
        "details": "Only the contract owner may call this."
      }
    },
    "version": 1
  },
  "userdoc": {
    "kind": "user",
    "methods": {
      "setPaused(bool)": {
        "notice": "Change the paused state of the contract"
      }
    },
    "version": 1
  },
  "storageLayout": {
    "storage": [
      {
        "astId": 2523,
        "contract": "contracts/DankBankStaking.sol:DankBankStaking",
        "label": "owner",
        "offset": 0,
        "slot": "0",
        "type": "t_address"
      },
      {
        "astId": 2525,
        "contract": "contracts/DankBankStaking.sol:DankBankStaking",
        "label": "nominatedOwner",
        "offset": 0,
        "slot": "1",
        "type": "t_address"
      },
      {
        "astId": 2703,
        "contract": "contracts/DankBankStaking.sol:DankBankStaking",
        "label": "rewardsDistribution",
        "offset": 0,
        "slot": "2",
        "type": "t_address"
      },
      {
        "astId": 329,
        "contract": "contracts/DankBankStaking.sol:DankBankStaking",
        "label": "_status",
        "offset": 0,
        "slot": "3",
        "type": "t_uint256"
      },
      {
        "astId": 2634,
        "contract": "contracts/DankBankStaking.sol:DankBankStaking",
        "label": "lastPauseTime",
        "offset": 0,
        "slot": "4",
        "type": "t_uint256"
      },
      {
        "astId": 2636,
        "contract": "contracts/DankBankStaking.sol:DankBankStaking",
        "label": "paused",
        "offset": 0,
        "slot": "5",
        "type": "t_bool"
      },
      {
        "astId": 1886,
        "contract": "contracts/DankBankStaking.sol:DankBankStaking",
        "label": "rewardsToken",
        "offset": 1,
        "slot": "5",
        "type": "t_address"
      },
      {
        "astId": 1889,
        "contract": "contracts/DankBankStaking.sol:DankBankStaking",
        "label": "stakingToken",
        "offset": 0,
        "slot": "6",
        "type": "t_contract(IERC20)982"
      },
      {
        "astId": 1891,
        "contract": "contracts/DankBankStaking.sol:DankBankStaking",
        "label": "periodFinish",
        "offset": 0,
        "slot": "7",
        "type": "t_uint256"
      },
      {
        "astId": 1894,
        "contract": "contracts/DankBankStaking.sol:DankBankStaking",
        "label": "rewardRate",
        "offset": 0,
        "slot": "8",
        "type": "t_uint256"
      },
      {
        "astId": 1897,
        "contract": "contracts/DankBankStaking.sol:DankBankStaking",
        "label": "rewardsDuration",
        "offset": 0,
        "slot": "9",
        "type": "t_uint256"
      },
      {
        "astId": 1899,
        "contract": "contracts/DankBankStaking.sol:DankBankStaking",
        "label": "lastUpdateTime",
        "offset": 0,
        "slot": "10",
        "type": "t_uint256"
      },
      {
        "astId": 1901,
        "contract": "contracts/DankBankStaking.sol:DankBankStaking",
        "label": "rewardPerTokenStored",
        "offset": 0,
        "slot": "11",
        "type": "t_uint256"
      },
      {
        "astId": 1905,
        "contract": "contracts/DankBankStaking.sol:DankBankStaking",
        "label": "userRewardPerTokenPaid",
        "offset": 0,
        "slot": "12",
        "type": "t_mapping(t_address,t_uint256)"
      },
      {
        "astId": 1909,
        "contract": "contracts/DankBankStaking.sol:DankBankStaking",
        "label": "rewards",
        "offset": 0,
        "slot": "13",
        "type": "t_mapping(t_address,t_uint256)"
      },
      {
        "astId": 1911,
        "contract": "contracts/DankBankStaking.sol:DankBankStaking",
        "label": "_totalSupply",
        "offset": 0,
        "slot": "14",
        "type": "t_uint256"
      },
      {
        "astId": 1915,
        "contract": "contracts/DankBankStaking.sol:DankBankStaking",
        "label": "_balances",
        "offset": 0,
        "slot": "15",
        "type": "t_mapping(t_address,t_uint256)"
      }
    ],
    "types": {
      "t_address": {
        "encoding": "inplace",
        "label": "address",
        "numberOfBytes": "20"
      },
      "t_bool": {
        "encoding": "inplace",
        "label": "bool",
        "numberOfBytes": "1"
      },
      "t_contract(IERC20)982": {
        "encoding": "inplace",
        "label": "contract IERC20",
        "numberOfBytes": "20"
      },
      "t_mapping(t_address,t_uint256)": {
        "encoding": "mapping",
        "key": "t_address",
        "label": "mapping(address => uint256)",
        "numberOfBytes": "32",
        "value": "t_uint256"
      },
      "t_uint256": {
        "encoding": "inplace",
        "label": "uint256",
        "numberOfBytes": "32"
      }
    }
  }
}