{
  "address": "0x3bD0E0A3F66393B750eaaC66Ea2f7C4f7c15d8bD",
  "abi": [
    {
      "inputs": [
        {
          "internalType": "address",
          "name": "_owner",
          "type": "address"
        },
        {
          "internalType": "address",
          "name": "_memeToken",
          "type": "address"
        },
        {
          "internalType": "address",
          "name": "_rewardToken",
          "type": "address"
        },
        {
          "internalType": "address",
          "name": "_stakingToken",
          "type": "address"
        },
        {
          "internalType": "uint256",
          "name": "_lpTokenId",
          "type": "uint256"
        },
        {
          "internalType": "uint256",
          "name": "_rewardRate",
          "type": "uint256"
        }
      ],
      "stateMutability": "nonpayable",
      "type": "constructor"
    },
    {
      "anonymous": false,
      "inputs": [
        {
          "indexed": false,
          "internalType": "address",
          "name": "oldOwner",
          "type": "address"
        },
        {
          "indexed": false,
          "internalType": "address",
          "name": "newOwner",
          "type": "address"
        }
      ],
      "name": "OwnerChanged",
      "type": "event"
    },
    {
      "anonymous": false,
      "inputs": [
        {
          "indexed": false,
          "internalType": "address",
          "name": "newOwner",
          "type": "address"
        }
      ],
      "name": "OwnerNominated",
      "type": "event"
    },
    {
      "anonymous": false,
      "inputs": [
        {
          "indexed": false,
          "internalType": "bool",
          "name": "isPaused",
          "type": "bool"
        }
      ],
      "name": "PauseChanged",
      "type": "event"
    },
    {
      "anonymous": false,
      "inputs": [
        {
          "indexed": false,
          "internalType": "uint256",
          "name": "periodFinish",
          "type": "uint256"
        }
      ],
      "name": "PeriodFinishUpdated",
      "type": "event"
    },
    {
      "anonymous": false,
      "inputs": [
        {
          "indexed": false,
          "internalType": "address",
          "name": "token",
          "type": "address"
        },
        {
          "indexed": false,
          "internalType": "uint256",
          "name": "amount",
          "type": "uint256"
        }
      ],
      "name": "Recovered",
      "type": "event"
    },
    {
      "anonymous": false,
      "inputs": [
        {
          "indexed": false,
          "internalType": "uint256",
          "name": "reward",
          "type": "uint256"
        }
      ],
      "name": "RewardAdded",
      "type": "event"
    },
    {
      "anonymous": false,
      "inputs": [
        {
          "indexed": true,
          "internalType": "address",
          "name": "account",
          "type": "address"
        },
        {
          "indexed": false,
          "internalType": "uint256",
          "name": "reward",
          "type": "uint256"
        }
      ],
      "name": "RewardPaid",
      "type": "event"
    },
    {
      "anonymous": false,
      "inputs": [
        {
          "indexed": false,
          "internalType": "uint256",
          "name": "rate",
          "type": "uint256"
        }
      ],
      "name": "RewardRateUpdated",
      "type": "event"
    },
    {
      "anonymous": false,
      "inputs": [
        {
          "indexed": false,
          "internalType": "address",
          "name": "token",
          "type": "address"
        }
      ],
      "name": "RewardTokenUpdated",
      "type": "event"
    },
    {
      "anonymous": false,
      "inputs": [
        {
          "indexed": false,
          "internalType": "uint256",
          "name": "newDuration",
          "type": "uint256"
        }
      ],
      "name": "RewardsDurationUpdated",
      "type": "event"
    },
    {
      "anonymous": false,
      "inputs": [
        {
          "indexed": true,
          "internalType": "address",
          "name": "account",
          "type": "address"
        },
        {
          "indexed": false,
          "internalType": "uint256",
          "name": "amount",
          "type": "uint256"
        }
      ],
      "name": "Staked",
      "type": "event"
    },
    {
      "anonymous": false,
      "inputs": [
        {
          "indexed": true,
          "internalType": "address",
          "name": "account",
          "type": "address"
        },
        {
          "indexed": false,
          "internalType": "uint256",
          "name": "amount",
          "type": "uint256"
        }
      ],
      "name": "Withdrawn",
      "type": "event"
    },
    {
      "inputs": [],
      "name": "acceptOwnership",
      "outputs": [],
      "stateMutability": "nonpayable",
      "type": "function"
    },
    {
      "inputs": [
        {
          "internalType": "address",
          "name": "account",
          "type": "address"
        }
      ],
      "name": "balanceOf",
      "outputs": [
        {
          "internalType": "uint256",
          "name": "",
          "type": "uint256"
        }
      ],
      "stateMutability": "view",
      "type": "function"
    },
    {
      "inputs": [
        {
          "internalType": "address",
          "name": "account",
          "type": "address"
        }
      ],
      "name": "earned",
      "outputs": [
        {
          "internalType": "uint256",
          "name": "",
          "type": "uint256"
        }
      ],
      "stateMutability": "view",
      "type": "function"
    },
    {
      "inputs": [],
      "name": "exit",
      "outputs": [],
      "stateMutability": "nonpayable",
      "type": "function"
    },
    {
      "inputs": [],
      "name": "getReward",
      "outputs": [],
      "stateMutability": "nonpayable",
      "type": "function"
    },
    {
      "inputs": [],
      "name": "getRewardForDuration",
      "outputs": [
        {
          "internalType": "uint256",
          "name": "",
          "type": "uint256"
        }
      ],
      "stateMutability": "view",
      "type": "function"
    },
    {
      "inputs": [],
      "name": "lastPauseTime",
      "outputs": [
        {
          "internalType": "uint256",
          "name": "",
          "type": "uint256"
        }
      ],
      "stateMutability": "view",
      "type": "function"
    },
    {
      "inputs": [],
      "name": "lastTimeRewardApplicable",
      "outputs": [
        {
          "internalType": "uint256",
          "name": "",
          "type": "uint256"
        }
      ],
      "stateMutability": "view",
      "type": "function"
    },
    {
      "inputs": [],
      "name": "lastUpdateTime",
      "outputs": [
        {
          "internalType": "uint256",
          "name": "",
          "type": "uint256"
        }
      ],
      "stateMutability": "view",
      "type": "function"
    },
    {
      "inputs": [],
      "name": "lpTokenId",
      "outputs": [
        {
          "internalType": "uint256",
          "name": "",
          "type": "uint256"
        }
      ],
      "stateMutability": "view",
      "type": "function"
    },
    {
      "inputs": [],
      "name": "memeToken",
      "outputs": [
        {
          "internalType": "address",
          "name": "",
          "type": "address"
        }
      ],
      "stateMutability": "view",
      "type": "function"
    },
    {
      "inputs": [
        {
          "internalType": "address",
          "name": "_owner",
          "type": "address"
        }
      ],
      "name": "nominateNewOwner",
      "outputs": [],
      "stateMutability": "nonpayable",
      "type": "function"
    },
    {
      "inputs": [],
      "name": "nominatedOwner",
      "outputs": [
        {
          "internalType": "address",
          "name": "",
          "type": "address"
        }
      ],
      "stateMutability": "view",
      "type": "function"
    },
    {
      "inputs": [
        {
          "internalType": "uint256",
          "name": "reward",
          "type": "uint256"
        }
      ],
      "name": "notifyRewardAmount",
      "outputs": [],
      "stateMutability": "nonpayable",
      "type": "function"
    },
    {
      "inputs": [
        {
          "internalType": "address",
          "name": "",
          "type": "address"
        },
        {
          "internalType": "address",
          "name": "",
          "type": "address"
        },
        {
          "internalType": "uint256[]",
          "name": "",
          "type": "uint256[]"
        },
        {
          "internalType": "uint256[]",
          "name": "",
          "type": "uint256[]"
        },
        {
          "internalType": "bytes",
          "name": "",
          "type": "bytes"
        }
      ],
      "name": "onERC1155BatchReceived",
      "outputs": [
        {
          "internalType": "bytes4",
          "name": "",
          "type": "bytes4"
        }
      ],
      "stateMutability": "nonpayable",
      "type": "function"
    },
    {
      "inputs": [
        {
          "internalType": "address",
          "name": "",
          "type": "address"
        },
        {
          "internalType": "address",
          "name": "",
          "type": "address"
        },
        {
          "internalType": "uint256",
          "name": "",
          "type": "uint256"
        },
        {
          "internalType": "uint256",
          "name": "",
          "type": "uint256"
        },
        {
          "internalType": "bytes",
          "name": "",
          "type": "bytes"
        }
      ],
      "name": "onERC1155Received",
      "outputs": [
        {
          "internalType": "bytes4",
          "name": "",
          "type": "bytes4"
        }
      ],
      "stateMutability": "nonpayable",
      "type": "function"
    },
    {
      "inputs": [],
      "name": "owner",
      "outputs": [
        {
          "internalType": "address",
          "name": "",
          "type": "address"
        }
      ],
      "stateMutability": "view",
      "type": "function"
    },
    {
      "inputs": [],
      "name": "paused",
      "outputs": [
        {
          "internalType": "bool",
          "name": "",
          "type": "bool"
        }
      ],
      "stateMutability": "view",
      "type": "function"
    },
    {
      "inputs": [],
      "name": "periodFinish",
      "outputs": [
        {
          "internalType": "uint256",
          "name": "",
          "type": "uint256"
        }
      ],
      "stateMutability": "view",
      "type": "function"
    },
    {
      "inputs": [
        {
          "internalType": "address",
          "name": "tokenAddress",
          "type": "address"
        },
        {
          "internalType": "uint256",
          "name": "tokenAmount",
          "type": "uint256"
        }
      ],
      "name": "recoverERC20",
      "outputs": [],
      "stateMutability": "nonpayable",
      "type": "function"
    },
    {
      "inputs": [],
      "name": "rewardPerToken",
      "outputs": [
        {
          "internalType": "uint256",
          "name": "",
          "type": "uint256"
        }
      ],
      "stateMutability": "view",
      "type": "function"
    },
    {
      "inputs": [],
      "name": "rewardPerTokenStored",
      "outputs": [
        {
          "internalType": "uint256",
          "name": "",
          "type": "uint256"
        }
      ],
      "stateMutability": "view",
      "type": "function"
    },
    {
      "inputs": [],
      "name": "rewardRate",
      "outputs": [
        {
          "internalType": "uint256",
          "name": "",
          "type": "uint256"
        }
      ],
      "stateMutability": "view",
      "type": "function"
    },
    {
      "inputs": [],
      "name": "rewardToken",
      "outputs": [
        {
          "internalType": "address",
          "name": "",
          "type": "address"
        }
      ],
      "stateMutability": "view",
      "type": "function"
    },
    {
      "inputs": [
        {
          "internalType": "address",
          "name": "",
          "type": "address"
        },
        {
          "internalType": "address",
          "name": "",
          "type": "address"
        }
      ],
      "name": "rewards",
      "outputs": [
        {
          "internalType": "uint256",
          "name": "",
          "type": "uint256"
        }
      ],
      "stateMutability": "view",
      "type": "function"
    },
    {
      "inputs": [],
      "name": "rewardsDistribution",
      "outputs": [
        {
          "internalType": "address",
          "name": "",
          "type": "address"
        }
      ],
      "stateMutability": "view",
      "type": "function"
    },
    {
      "inputs": [],
      "name": "rewardsDuration",
      "outputs": [
        {
          "internalType": "uint256",
          "name": "",
          "type": "uint256"
        }
      ],
      "stateMutability": "view",
      "type": "function"
    },
    {
      "inputs": [
        {
          "internalType": "bool",
          "name": "_paused",
          "type": "bool"
        }
      ],
      "name": "setPaused",
      "outputs": [],
      "stateMutability": "nonpayable",
      "type": "function"
    },
    {
      "inputs": [
        {
          "internalType": "uint256",
          "name": "_periodFinish",
          "type": "uint256"
        }
      ],
      "name": "setPeriodFinish",
      "outputs": [],
      "stateMutability": "nonpayable",
      "type": "function"
    },
    {
      "inputs": [
        {
          "internalType": "uint256",
          "name": "_rate",
          "type": "uint256"
        }
      ],
      "name": "setRewardRate",
      "outputs": [],
      "stateMutability": "nonpayable",
      "type": "function"
    },
    {
      "inputs": [
        {
          "internalType": "address",
          "name": "_tokenAddress",
          "type": "address"
        }
      ],
      "name": "setRewardToken",
      "outputs": [],
      "stateMutability": "nonpayable",
      "type": "function"
    },
    {
      "inputs": [
        {
          "internalType": "address",
          "name": "_rewardsDistribution",
          "type": "address"
        }
      ],
      "name": "setRewardsDistribution",
      "outputs": [],
      "stateMutability": "nonpayable",
      "type": "function"
    },
    {
      "inputs": [
        {
          "internalType": "uint256",
          "name": "_rewardsDuration",
          "type": "uint256"
        }
      ],
      "name": "setRewardsDuration",
      "outputs": [],
      "stateMutability": "nonpayable",
      "type": "function"
    },
    {
      "inputs": [
        {
          "internalType": "uint256",
          "name": "amount",
          "type": "uint256"
        }
      ],
      "name": "stake",
      "outputs": [],
      "stateMutability": "nonpayable",
      "type": "function"
    },
    {
      "inputs": [],
      "name": "stakingLPToken",
      "outputs": [
        {
          "internalType": "contract IERC1155",
          "name": "",
          "type": "address"
        }
      ],
      "stateMutability": "view",
      "type": "function"
    },
    {
      "inputs": [
        {
          "internalType": "bytes4",
          "name": "interfaceId",
          "type": "bytes4"
        }
      ],
      "name": "supportsInterface",
      "outputs": [
        {
          "internalType": "bool",
          "name": "",
          "type": "bool"
        }
      ],
      "stateMutability": "view",
      "type": "function"
    },
    {
      "inputs": [],
      "name": "totalSupply",
      "outputs": [
        {
          "internalType": "uint256",
          "name": "",
          "type": "uint256"
        }
      ],
      "stateMutability": "view",
      "type": "function"
    },
    {
      "inputs": [
        {
          "internalType": "address",
          "name": "",
          "type": "address"
        }
      ],
      "name": "userRewardPerTokenPaid",
      "outputs": [
        {
          "internalType": "uint256",
          "name": "",
          "type": "uint256"
        }
      ],
      "stateMutability": "view",
      "type": "function"
    },
    {
      "inputs": [
        {
          "internalType": "uint256",
          "name": "amount",
          "type": "uint256"
        }
      ],
      "name": "withdraw",
      "outputs": [],
      "stateMutability": "nonpayable",
      "type": "function"
    }
  ],
  "transactionHash": "0x9c5aab885159cfbc469441abbc096f2ece7e40404e43723cafc4863829863d64",
  "args": [
    "0x8DD94D36932Ae66A96c01Be4d8F76B3734f590a9",
    "0x93e46118165e6b32b83e5c8931b1291a7d1c53f2",
    "0x93e46118165e6b32b83e5c8931b1291a7d1c53f2",
    "0xFc509DB19c008D851F1823961B541b65FbEf43ff",
    "844314671304614845033216911081071804793522770930",
    10
  ],
  "solcInputHash": "929b4625f431ba1b73ca5e47a77ad62c",
  "bytecode": "0x6080604052610e10600b553480156200001757600080fd5b5060405162002059380380620020598339810160408190526200003a91620001d2565b856001600160a01b038116620000975760405162461bcd60e51b815260206004820152601960248201527f4f776e657220616464726573732063616e6e6f7420626520300000000000000060448201526064015b60405180910390fd5b600080546001600160a01b0319166001600160a01b03831690811782556040805192835260208301919091527fb532073b38c83145e3e5135377a08bf9aab55bc0fd7c1179cd4fb995d2a5159c910160405180910390a15060016003556000546001600160a01b0316620001425760405162461bcd60e51b815260206004820152601160248201527013dddb995c881b5d5cdd081899481cd95d607a1b60448201526064016200008e565b600680546001600160a01b038087166001600160a01b0319928316179092556007805488841692169190911790556005805491851661010002610100600160a81b03199092169190911790556008829055620001a34263059fa60062000240565b600955600a5550620002659350505050565b80516001600160a01b0381168114620001cd57600080fd5b919050565b60008060008060008060c08789031215620001eb578182fd5b620001f687620001b5565b95506200020660208801620001b5565b94506200021660408801620001b5565b93506200022660608801620001b5565b92506080870151915060a087015190509295509295509295565b600082198211156200026057634e487b7160e01b81526011600452602481fd5b500190565b611de480620002756000396000f3fe608060405234801561001057600080fd5b50600436106102ac5760003560e01c80638980f11f1161017b578063c8f33c91116100d8578063e70b9e271161008c578063ebe2b12b11610071578063ebe2b12b14610589578063f23a6e6114610592578063f7c618c1146105ca57600080fd5b8063e70b9e2714610556578063e9fad8ee1461058157600080fd5b8063cd3daf9d116100bd578063cd3daf9d14610532578063df136d651461053a578063df4e4e581461054357600080fd5b8063c8f33c9114610516578063cc1a378f1461051f57600080fd5b8063972598e71161012f578063a694fc3a11610114578063a694fc3a1461049a578063bc197c81146104ad578063c41f7808146104fe57600080fd5b8063972598e7146104745780639e447fc61461048757600080fd5b80638b876347116101605780638b876347146104385780638da5cb5b1461045857806391b4ded91461046b57600080fd5b80638980f11f146104125780638aee81271461042557600080fd5b8063386a9525116102295780635c975abb116101dd57806379ba5097116101c257806379ba5097146103f95780637b0a47ee1461040157806380faa57d1461040a57600080fd5b80635c975abb146103c357806370a08231146103d057600080fd5b80633d18b9121161020e5780633d18b9121461037d5780633fc6df6e1461038557806353a47bb7146103b057600080fd5b8063386a9525146103615780633c6b16ab1461036a57600080fd5b806316c38b3c11610280578063197621431161026557806319762143146103335780631c1f78eb146103465780632e1a7d4d1461034e57600080fd5b806316c38b3c1461031857806318160ddd1461032b57600080fd5b80628cc262146102b157806301ffc9a7146102d75780630242d712146102fa5780631627540c14610303575b600080fd5b6102c46102bf366004611a71565b6105dd565b6040519081526020015b60405180910390f35b6102ea6102e5366004611c27565b61066c565b60405190151581526020016102ce565b6102c460085481565b610316610311366004611a71565b6106d3565b005b610316610326366004611bef565b61073d565b6010546102c4565b610316610341366004611a71565b6107b3565b6102c46107ea565b61031661035c366004611c4f565b610808565b6102c4600b5481565b610316610378366004611c4f565b610a20565b610316610cb6565b600254610398906001600160a01b031681565b6040516001600160a01b0390911681526020016102ce565b600154610398906001600160a01b031681565b6005546102ea9060ff1681565b6102c46103de366004611a71565b6001600160a01b031660009081526011602052604090205490565b610316610e18565b6102c4600a5481565b6102c4610f17565b610316610420366004611bc6565b610f2e565b610316610433366004611a71565b61101f565b6102c4610446366004611a71565b600e6020526000908152604090205481565b600054610398906001600160a01b031681565b6102c460045481565b600754610398906001600160a01b031681565b610316610495366004611c4f565b6110fe565b6103166104a8366004611c4f565b61113b565b6104e56104bb366004611abd565b7fbc197c810000000000000000000000000000000000000000000000000000000095945050505050565b6040516001600160e01b031990911681526020016102ce565b6005546103989061010090046001600160a01b031681565b6102c4600c5481565b61031661052d366004611c4f565b6113ba565b6102c4611494565b6102c4600d5481565b610316610551366004611c4f565b6114e0565b6102c4610564366004611a8b565b600f60209081526000928352604080842090915290825290205481565b610316611594565b6102c460095481565b6104e56105a0366004611b63565b7ff23a6e610000000000000000000000000000000000000000000000000000000095945050505050565b600654610398906001600160a01b031681565b6006546001600160a01b039081166000908152600f60209081526040808320938516835292815282822054600e9091529181205490916106669161066090670de0b6b3a76400009061065a9061063b90610635611494565b906115b7565b6001600160a01b038816600090815260116020526040902054906115ca565b906115d6565b906115e2565b92915050565b60006001600160e01b031982167f4e2312e000000000000000000000000000000000000000000000000000000000148061066657507f01ffc9a7000000000000000000000000000000000000000000000000000000006001600160e01b0319831614610666565b6106db6115ee565b6001805473ffffffffffffffffffffffffffffffffffffffff19166001600160a01b0383169081179091556040519081527f906a1c6bd7e3091ea86693dd029a831c19049ce77f1dce2ce0bab1cacbabce22906020015b60405180910390a150565b6107456115ee565b60055460ff16151581151514156107595750565b6005805460ff191682151590811790915560ff161561077757426004555b60055460405160ff909116151581527f8fb6c181ee25a520cf3dd6565006ef91229fcfe5a989566c2a3b8c115570cec590602001610732565b50565b6107bb6115ee565b6002805473ffffffffffffffffffffffffffffffffffffffff19166001600160a01b0392909216919091179055565b6000610803600b54600a546115ca90919063ffffffff16565b905090565b600260035414156108605760405162461bcd60e51b815260206004820152601f60248201527f5265656e7472616e637947756172643a207265656e7472616e742063616c6c0060448201526064015b60405180910390fd5b60026003553361086e611494565b600d55610879610f17565b600c556001600160a01b038116156108cd57610894816105dd565b6006546001600160a01b039081166000908152600f60209081526040808320938616835292815282822093909355600d54600e90935220555b6000821161091d5760405162461bcd60e51b815260206004820152601160248201527f43616e6e6f7420776974686472617720300000000000000000000000000000006044820152606401610857565b60105461092a90836115b7565b6010553360009081526011602052604090205461094790836115b7565b33600081815260116020526040808220939093556005546008549351637921219560e11b8152306004820152602481019390935260448301939093526064820185905260a0608483015260a48201526101009091046001600160a01b03169063f242432a9060c401600060405180830381600087803b1580156109c957600080fd5b505af11580156109dd573d6000803e3d6000fd5b50506040518481523392507f7084f5476618d8e60b11ef0d7d3f06914655adb8793e28ff7f018d4c76d505d591506020015b60405180910390a250506001600355565b6002546001600160a01b03163314610aa05760405162461bcd60e51b815260206004820152602a60248201527f43616c6c6572206973206e6f742052657761726473446973747269627574696f60448201527f6e20636f6e7472616374000000000000000000000000000000000000000000006064820152608401610857565b6000610aaa611494565b600d55610ab5610f17565b600c556001600160a01b03811615610b0957610ad0816105dd565b6006546001600160a01b039081166000908152600f60209081526040808320938616835292815282822093909355600d54600e90935220555b6009544210610b2857600b54610b209083906115d6565b600a55610b6b565b600954600090610b3890426115b7565b90506000610b51600a54836115ca90919063ffffffff16565b600b54909150610b659061065a86846115e2565b600a5550505b6006546040517f70a082310000000000000000000000000000000000000000000000000000000081523060048201526000916001600160a01b0316906370a082319060240160206040518083038186803b158015610bc857600080fd5b505afa158015610bdc573d6000803e3d6000fd5b505050506040513d601f19601f82011682018060405250810190610c009190611c67565b9050610c17600b54826115d690919063ffffffff16565b600a541115610c685760405162461bcd60e51b815260206004820152601860248201527f50726f76696465642072657761726420746f6f206869676800000000000000006044820152606401610857565b42600c819055600b54610c7b91906115e2565b6009556040518381527fde88a922e0d3b88b24e9623efeb464919c6bf9f66857a65e2bfcf2ce87a9433d9060200160405180910390a1505050565b60026003541415610d095760405162461bcd60e51b815260206004820152601f60248201527f5265656e7472616e637947756172643a207265656e7472616e742063616c6c006044820152606401610857565b600260035533610d17611494565b600d55610d22610f17565b600c556001600160a01b03811615610d7657610d3d816105dd565b6006546001600160a01b039081166000908152600f60209081526040808320938616835292815282822093909355600d54600e90935220555b6006546001600160a01b03166000908152600f602090815260408083203384529091529020548015610e0f57600680546001600160a01b039081166000908152600f602090815260408083203380855292528220919091559154610ddd929116908361166e565b60405181815233907fe2403640ba68fed3a2f88b7557551d1993f84b99bb10ff833f0cf8db0c5e048690602001610a0f565b50506001600355565b6001546001600160a01b03163314610e985760405162461bcd60e51b815260206004820152603560248201527f596f75206d757374206265206e6f6d696e61746564206265666f726520796f7560448201527f2063616e20616363657074206f776e65727368697000000000000000000000006064820152608401610857565b600054600154604080516001600160a01b0393841681529290911660208301527fb532073b38c83145e3e5135377a08bf9aab55bc0fd7c1179cd4fb995d2a5159c910160405180910390a1600180546000805473ffffffffffffffffffffffffffffffffffffffff199081166001600160a01b03841617909155169055565b60006009544210610f29575060095490565b504290565b610f366115ee565b6005546001600160a01b03838116610100909204161415610fbf5760405162461bcd60e51b815260206004820152602160248201527f43616e6e6f7420776974686472617720746865207374616b696e6720746f6b6560448201527f6e000000000000000000000000000000000000000000000000000000000000006064820152608401610857565b600054610fd9906001600160a01b0384811691168361166e565b604080516001600160a01b0384168152602081018390527f8c1256b8896378cd5044f80c202f9772b9d77dc85c8a6eb51967210b09bfaa28910160405180910390a15050565b6110276115ee565b6001600160a01b0381166110a35760405162461bcd60e51b815260206004820152602860248201527f43616e6e6f7420736574207468652072657761726420746f6b656e20746f203060448201527f20616464726573730000000000000000000000000000000000000000000000006064820152608401610857565b6006805473ffffffffffffffffffffffffffffffffffffffff19166001600160a01b0383169081179091556040519081527fa5289ba11778999f4dfb9415023783188d42bbb5db0612cbfbe55999069612a090602001610732565b6111066115ee565b600a8190556040518181527f41d466ebd06fb97e7786086ac8b69b7eb7da798592036251291d34e9791cde0190602001610732565b6002600354141561118e5760405162461bcd60e51b815260206004820152601f60248201527f5265656e7472616e637947756172643a207265656e7472616e742063616c6c006044820152606401610857565b600260035560055460ff161561120c5760405162461bcd60e51b815260206004820152603c60248201527f5468697320616374696f6e2063616e6e6f7420626520706572666f726d65642060448201527f7768696c652074686520636f6e747261637420697320706175736564000000006064820152608401610857565b33611215611494565b600d55611220610f17565b600c556001600160a01b038116156112745761123b816105dd565b6006546001600160a01b039081166000908152600f60209081526040808320938616835292815282822093909355600d54600e90935220555b600082116112c45760405162461bcd60e51b815260206004820152600e60248201527f43616e6e6f74207374616b6520300000000000000000000000000000000000006044820152606401610857565b6010546112d190836115e2565b601055336000908152601160205260409020546112ee90836115e2565b33600081815260116020526040808220939093556005546008549351637921219560e11b8152600481019390935230602484015260448301939093526064820185905260a0608483015260a48201526101009091046001600160a01b03169063f242432a9060c401600060405180830381600087803b15801561137057600080fd5b505af1158015611384573d6000803e3d6000fd5b50506040518481523392507f9e71bc8eea02a63969f509818f2dafb9254532904319f9dbda79b67bd34a5f3d9150602001610a0f565b6113c26115ee565b600954421161145f5760405162461bcd60e51b815260206004820152605860248201527f50726576696f7573207265776172647320706572696f64206d7573742062652060448201527f636f6d706c657465206265666f7265206368616e67696e67207468652064757260648201527f6174696f6e20666f7220746865206e657720706572696f640000000000000000608482015260a401610857565b600b8190556040518181527ffb46ca5a5e06d4540d6387b930a7c978bce0db5f449ec6b3f5d07c6e1d44f2d390602001610732565b6000601054600014156114a85750600d5490565b6108036114d760105461065a670de0b6b3a76400006114d1600a546114d1600c54610635610f17565b906115ca565b600d54906115e2565b6114e86115ee565b806009541061155f5760405162461bcd60e51b815260206004820152603960248201527f4e657720706572696f642066696e697368206d7573742062652061667465722060448201527f7468652063757272656e7420706572696f642066696e697368000000000000006064820152608401610857565b60098190556040518181527fe88a1ce556dc43c60c2b7c4e7fd5ea94b587fc60d611d3be4b5bf41f5cd06f8f90602001610732565b336000908152601160205260409020546115ad90610808565b6115b5610cb6565b565b60006115c38284611d56565b9392505050565b60006115c38284611d37565b60006115c38284611d17565b60006115c38284611cff565b6000546001600160a01b031633146115b55760405162461bcd60e51b815260206004820152602f60248201527f4f6e6c792074686520636f6e7472616374206f776e6572206d6179207065726660448201527f6f726d207468697320616374696f6e00000000000000000000000000000000006064820152608401610857565b604080516001600160a01b038416602482015260448082018490528251808303909101815260649091019091526020810180517bffffffffffffffffffffffffffffffffffffffffffffffffffffffff167fa9059cbb000000000000000000000000000000000000000000000000000000001790526116ee9084906116f3565b505050565b6000611748826040518060400160405280602081526020017f5361666545524332303a206c6f772d6c6576656c2063616c6c206661696c6564815250856001600160a01b03166117d89092919063ffffffff16565b8051909150156116ee57808060200190518101906117669190611c0b565b6116ee5760405162461bcd60e51b815260206004820152602a60248201527f5361666545524332303a204552433230206f7065726174696f6e20646964206e60448201527f6f742073756363656564000000000000000000000000000000000000000000006064820152608401610857565b60606117e784846000856117ef565b949350505050565b6060824710156118675760405162461bcd60e51b815260206004820152602660248201527f416464726573733a20696e73756666696369656e742062616c616e636520666f60448201527f722063616c6c00000000000000000000000000000000000000000000000000006064820152608401610857565b843b6118b55760405162461bcd60e51b815260206004820152601d60248201527f416464726573733a2063616c6c20746f206e6f6e2d636f6e74726163740000006044820152606401610857565b600080866001600160a01b031685876040516118d19190611c7f565b60006040518083038185875af1925050503d806000811461190e576040519150601f19603f3d011682016040523d82523d6000602084013e611913565b606091505b509150915061192382828661192e565b979650505050505050565b6060831561193d5750816115c3565b82511561194d5782518084602001fd5b8160405162461bcd60e51b81526004016108579190611c9b565b80356001600160a01b038116811461197e57600080fd5b919050565b600082601f830112611993578081fd5b8135602067ffffffffffffffff8211156119af576119af611db3565b8160051b6119be828201611cce565b8381528281019086840183880185018910156119d8578687fd5b8693505b858410156119fa5780358352600193909301929184019184016119dc565b50979650505050505050565b600082601f830112611a16578081fd5b813567ffffffffffffffff811115611a3057611a30611db3565b611a43601f8201601f1916602001611cce565b818152846020838601011115611a57578283fd5b816020850160208301379081016020019190915292915050565b600060208284031215611a82578081fd5b6115c382611967565b60008060408385031215611a9d578081fd5b611aa683611967565b9150611ab460208401611967565b90509250929050565b600080600080600060a08688031215611ad4578081fd5b611add86611967565b9450611aeb60208701611967565b9350604086013567ffffffffffffffff80821115611b07578283fd5b611b1389838a01611983565b94506060880135915080821115611b28578283fd5b611b3489838a01611983565b93506080880135915080821115611b49578283fd5b50611b5688828901611a06565b9150509295509295909350565b600080600080600060a08688031215611b7a578081fd5b611b8386611967565b9450611b9160208701611967565b93506040860135925060608601359150608086013567ffffffffffffffff811115611bba578182fd5b611b5688828901611a06565b60008060408385031215611bd8578182fd5b611be183611967565b946020939093013593505050565b600060208284031215611c00578081fd5b81356115c381611dc9565b600060208284031215611c1c578081fd5b81516115c381611dc9565b600060208284031215611c38578081fd5b81356001600160e01b0319811681146115c3578182fd5b600060208284031215611c60578081fd5b5035919050565b600060208284031215611c78578081fd5b5051919050565b60008251611c91818460208701611d6d565b9190910192915050565b6020815260008251806020840152611cba816040850160208701611d6d565b601f01601f19169190910160400192915050565b604051601f8201601f1916810167ffffffffffffffff81118282101715611cf757611cf7611db3565b604052919050565b60008219821115611d1257611d12611d9d565b500190565b600082611d3257634e487b7160e01b81526012600452602481fd5b500490565b6000816000190483118215151615611d5157611d51611d9d565b500290565b600082821015611d6857611d68611d9d565b500390565b60005b83811015611d88578181015183820152602001611d70565b83811115611d97576000848401525b50505050565b634e487b7160e01b600052601160045260246000fd5b634e487b7160e01b600052604160045260246000fd5b80151581146107b057600080fdfea164736f6c6343000804000a",
  "devdoc": {
    "kind": "dev",
    "methods": {
      "setPaused(bool)": {
        "details": "Only the contract owner may call this."
      },
      "supportsInterface(bytes4)": {
        "details": "See {IERC165-supportsInterface}."
      }
    },
    "version": 1
  },
  "userdoc": {
    "kind": "user",
    "methods": {
      "setPaused(bool)": {
        "notice": "Change the paused state of the contract"
      }
    },
    "version": 1
  },
  "storageLayout": {
    "storage": [
      {
        "astId": 3575,
        "contract": "contracts/DankBankStaking.sol:DankBankStaking",
        "label": "owner",
        "offset": 0,
        "slot": "0",
        "type": "t_address"
      },
      {
        "astId": 3577,
        "contract": "contracts/DankBankStaking.sol:DankBankStaking",
        "label": "nominatedOwner",
        "offset": 0,
        "slot": "1",
        "type": "t_address"
      },
      {
        "astId": 3755,
        "contract": "contracts/DankBankStaking.sol:DankBankStaking",
        "label": "rewardsDistribution",
        "offset": 0,
        "slot": "2",
        "type": "t_address"
      },
      {
        "astId": 714,
        "contract": "contracts/DankBankStaking.sol:DankBankStaking",
        "label": "_status",
        "offset": 0,
        "slot": "3",
        "type": "t_uint256"
      },
      {
        "astId": 3686,
        "contract": "contracts/DankBankStaking.sol:DankBankStaking",
        "label": "lastPauseTime",
        "offset": 0,
        "slot": "4",
        "type": "t_uint256"
      },
      {
        "astId": 3688,
        "contract": "contracts/DankBankStaking.sol:DankBankStaking",
        "label": "paused",
        "offset": 0,
        "slot": "5",
        "type": "t_bool"
      },
      {
        "astId": 2763,
        "contract": "contracts/DankBankStaking.sol:DankBankStaking",
        "label": "stakingLPToken",
        "offset": 1,
        "slot": "5",
        "type": "t_contract(IERC1155)865"
      },
      {
        "astId": 2765,
        "contract": "contracts/DankBankStaking.sol:DankBankStaking",
        "label": "rewardToken",
        "offset": 0,
        "slot": "6",
        "type": "t_address"
      },
      {
        "astId": 2767,
        "contract": "contracts/DankBankStaking.sol:DankBankStaking",
        "label": "memeToken",
        "offset": 0,
        "slot": "7",
        "type": "t_address"
      },
      {
        "astId": 2769,
        "contract": "contracts/DankBankStaking.sol:DankBankStaking",
        "label": "lpTokenId",
        "offset": 0,
        "slot": "8",
        "type": "t_uint256"
      },
      {
        "astId": 2771,
        "contract": "contracts/DankBankStaking.sol:DankBankStaking",
        "label": "periodFinish",
        "offset": 0,
        "slot": "9",
        "type": "t_uint256"
      },
      {
        "astId": 2773,
        "contract": "contracts/DankBankStaking.sol:DankBankStaking",
        "label": "rewardRate",
        "offset": 0,
        "slot": "10",
        "type": "t_uint256"
      },
      {
        "astId": 2776,
        "contract": "contracts/DankBankStaking.sol:DankBankStaking",
        "label": "rewardsDuration",
        "offset": 0,
        "slot": "11",
        "type": "t_uint256"
      },
      {
        "astId": 2778,
        "contract": "contracts/DankBankStaking.sol:DankBankStaking",
        "label": "lastUpdateTime",
        "offset": 0,
        "slot": "12",
        "type": "t_uint256"
      },
      {
        "astId": 2780,
        "contract": "contracts/DankBankStaking.sol:DankBankStaking",
        "label": "rewardPerTokenStored",
        "offset": 0,
        "slot": "13",
        "type": "t_uint256"
      },
      {
        "astId": 2784,
        "contract": "contracts/DankBankStaking.sol:DankBankStaking",
        "label": "userRewardPerTokenPaid",
        "offset": 0,
        "slot": "14",
        "type": "t_mapping(t_address,t_uint256)"
      },
      {
        "astId": 2790,
        "contract": "contracts/DankBankStaking.sol:DankBankStaking",
        "label": "rewards",
        "offset": 0,
        "slot": "15",
        "type": "t_mapping(t_address,t_mapping(t_address,t_uint256))"
      },
      {
        "astId": 2792,
        "contract": "contracts/DankBankStaking.sol:DankBankStaking",
        "label": "_totalSupply",
        "offset": 0,
        "slot": "16",
        "type": "t_uint256"
      },
      {
        "astId": 2796,
        "contract": "contracts/DankBankStaking.sol:DankBankStaking",
        "label": "_balances",
        "offset": 0,
        "slot": "17",
        "type": "t_mapping(t_address,t_uint256)"
      }
    ],
    "types": {
      "t_address": {
        "encoding": "inplace",
        "label": "address",
        "numberOfBytes": "20"
      },
      "t_bool": {
        "encoding": "inplace",
        "label": "bool",
        "numberOfBytes": "1"
      },
      "t_contract(IERC1155)865": {
        "encoding": "inplace",
        "label": "contract IERC1155",
        "numberOfBytes": "20"
      },
      "t_mapping(t_address,t_mapping(t_address,t_uint256))": {
        "encoding": "mapping",
        "key": "t_address",
        "label": "mapping(address => mapping(address => uint256))",
        "numberOfBytes": "32",
        "value": "t_mapping(t_address,t_uint256)"
      },
      "t_mapping(t_address,t_uint256)": {
        "encoding": "mapping",
        "key": "t_address",
        "label": "mapping(address => uint256)",
        "numberOfBytes": "32",
        "value": "t_uint256"
      },
      "t_uint256": {
        "encoding": "inplace",
        "label": "uint256",
        "numberOfBytes": "32"
      }
    }
  }
}